:020000040000fa
:080000000001040000000000f3
:020000040000fa
:04000800c40100002f
:020000040000fa
:04000c00c40100002b
:020000040000fa
:04001000c401000027
:020000040000fa
:04001400c401000023
:020000040000fa
:04001800c40100001f
:020000040000fa
:04001c00c40100001b
:020000040000fa
:04002000c401000017
:020000040000fa
:04002400c401000013
:020000040000fa
:04002800c40100000f
:020000040000fa
:04002c00c40100000b
:020000040000fa
:04003000c401000007
:020000040000fa
:04003400c401000003
:020000040000fa
:04003800c4010000ff
:020000040000fa
:04003c00c4010000fb
:020000040000fa
:04004000c4010000f7
:020000040000fa
:04004400c4010000f3
:020000040000fa
:04004800c4010000ef
:020000040000fa
:04004c00c4010000eb
:020000040000fa
:04005000c4010000e7
:020000040000fa
:04005400c4010000e3
:020000040000fa
:04005800c4010000df
:020000040000fa
:04005c00c4010000db
:020000040000fa
:04006000c4010000d7
:020000040000fa
:04006400c4010000d3
:020000040000fa
:04006800c4010000cf
:020000040000fa
:04006c00c4010000cb
:020000040000fa
:04007000c4010000c7
:020000040000fa
:04007400c4010000c3
:020000040000fa
:04007800c4010000bf
:020000040000fa
:04007c00c4010000bb
:020000040000fa
:04008000c4010000b7
:020000040000fa
:04008400c4010000b3
:020000040000fa
:04008800a8010000cb
:020000040000fa
:04008c00c4010000ab
:020000040000fa
:04009000c4010000a7
:020000040000fa
:04009400c4010000a3
:020000040000fa
:04009800c40100009f
:020000040000fa
:04009c00c40100009b
:020000040000fa
:0400a000c401000097
:020000040000fa
:0400a400c401000093
:020000040000fa
:0400a800c40100008f
:020000040000fa
:0400ac00c40100008b
:020000040000fa
:0400b000c401000087
:020000040000fa
:0400b400c401000083
:020000040000fa
:0400b800c40100007f
:020000040000fa
:0400bc00c40100007b
:020000040000fa
:0400c000c401000077
:020000040000fa
:0400c400c401000073
:020000040000fa
:0400c800c40100006f
:020000040000fa
:0400cc00c40100006b
:020000040000fa
:0400d000c401000067
:020000040000fa
:0400d400c401000063
:020000040000fa
:0400d800c40100005f
:020000040000fa
:04010800c40100002e
:020000040000fa
:04010c00c40100002a
:020000040000fa
:04011000c401000026
:020000040000fa
:04011400c401000022
:020000040000fa
:04011800c40100001e
:020000040000fa
:04011c00c40100001a
:020000040000fa
:04012000c401000016
:020000040000fa
:04012400c401000012
:020000040000fa
:04012800c40100000e
:020000040000fa
:04012c00c40100000a
:020000040000fa
:04013000c401000006
:020000040000fa
:04013400c401000002
:020000040000fa
:04013800c4010000fe
:020000040000fa
:04013c00c4010000fa
:020000040000fa
:04014000c4010000f6
:020000040000fa
:04014400c4010000f2
:020000040000fa
:04014800c4010000ee
:020000040000fa
:04014c00c4010000ea
:020000040000fa
:04015000c4010000e6
:020000040000fa
:04015400c4010000e2
:020000040000fa
:04015800c4010000de
:020000040000fa
:04015c00c4010000da
:020000040000fa
:04016000c4010000d6
:020000040000fa
:04016400c4010000d2
:020000040000fa
:04016800c4010000ce
:020000040000fa
:04016c00c4010000ca
:020000040000fa
:04017000c4010000c6
:020000040000fa
:04017400c4010000c2
:020000040000fa
:04017800c4010000be
:020000040000fa
:04017c00c4010000ba
:020000040000fa
:04018000c4010000b6
:020000040000fa
:04018400c4010000b2
:020000040000fa
:04018800c4010000ae
:020000040000fa
:04018c00c4010000aa
:020000040000fa
:04019000c4010000a6
:020000040000fa
:04019400c4010000a2
:020000040000fa
:04019800c40100009e
:020000040000fa
:04019c00c40100009a
:020000040000fa
:0401a000c401000096
:020000040000fa
:0401a400c401000092
:020000040000fa
:0401a800c40100008e
:020000040000fa
:0401ac00c40100008a
:020000040000fa
:0401b000c401000086
:020000040000fa
:0401b400c401000082
:020000040000fa
:0401b800c40100007e
:020000040000fa
:0401bc00c40100007a
:020000040000fa
:0401c000c401000076
:020000040000fa
:0401c400c401000072
:020000040000fa
:0401c800c40100006e
:020000040000fa
:0401cc00c40100006a
:020000040000fa
:0401d000c401000066
:020000040000fa
:0401d400c401000062
:020000040000fa
:0401d800c40100005e
:020000040000fa
:100200002f8020000eff20000e018800000000005b
:10021000000020000000e000020032000001200089
:10022000200288000c000700602920000100200047
:1002300011000700000020000000e0000200320072
:100240000000020000000000c801020000000000e1
:100250000040da000000fe004440a9000000200039
:100260000000e0000300320000002000a001880030
:100270004440a8000000060091018800800078003a
:100280000000eb0015003700e280400032a0b4000f
:100290009101ba00e280400032a0b4009102ba009d
:1002a000e280400032a0b4000002eb00472bde00e9
:1002b000f507b200602ce10004003a000059eb00a1
:1002c0008301e900fdff3e00040037006128e100e2
:1002d000010032000082eb000b00070011c3ba00de
:1002e0001101ba000604e00003003a000200e00039
:1002f000e5ff3a0000000600f607b200960188000c
:1003000082007800f5ff37003159ba008301e90017
:100310000c0032002159ba008301e90008003200c4
:100320000400e00003003a00e280400032a0b40084
:10033000f5ff370011d9ba008301e900faff3a004e
:100340008100e800e180400032a0b4000000060017
:10035000809fbe000000fa003104800000102000e1
:10036000008060000000e00004003200e010800027
:100370000040780000e8b7008700a9000080fa007c
:100380004f00be00004006000040da000000fe0002
:020000040000fa
:100390000000fa004e0007005c0007000140fe006c
:1003a00000c8bf000080fb00e20f500018003200c0
:1003b000e20f500003003c00e10f50000600320045
:1003c0003d003700e30f50001f003200e40f5000e3
:1003d0002b00320038003700501680004900de0044
:1003e0006140600000c0ea00614060000080fb00e6
:1003f000610060004900dd0052168000f1df2f002f
:100400008100610001007000501688002f00370045
:10041000501680004a00de006140600000c0ea0023
:10042000614060000080fb00610060004a00dd0068
:1004300052168000f1bf2f008100610001007000a2
:100440005016880021003700501680004b00de0057
:100450006140600000c0ea00614060000080fb0075
:10046000610060004b00dd0052168000f17f2f001c
:1004700081006100010070005016880013003700f1
:10048000501680004c00de006140600000c0ea00b1
:10049000614060000080fb00610060004c00dd00f6
:1004a00052168000f1ff2e008100610001007000f3
:1004b000501688000500370051168000f01f2e00ee
:1004c000008060005016880000000000b3ff370075
:1004d0000000fa00a922a800a942a800a962a80069
:1004e000a982a800c722a900c742a900c762a90023
:1004f000c782a900cb22a900cb42a900cb62a900e8
:10050000cb82a9000080fa00000006000000fa007b
:10051000b0002000f01088008f00a80017e2a800ab
:0c0520001942a8000080fa00000006004c
:020000040000fa
:10052c000008000002000000000000009e02800095
:020000040000fa
:04053c0000000000bb
:020000040000fa
:0200000401f009
:04000000e0b9000063
:020000040000fa
:0200000401f009
:04000400ff7f00007a
:020000040000fa
:0200000401f009
:04000800fdff0000f8
:020000040000fa
:0200000401f009
:04001400ffff0000ea
:020000040000fa
:0200000401f009
:04001800ffff0000e6
:00000001FF
